:1000000019C033C032C031C030C02FC02EC02DC087
:100010002CC02BC02AC029C028C027C026C025C09C
:1000200024C023C022C021C020C01FC01EC01DC0CC
:100030001CC01BC011241FBECFEFD2E0DEBFCDBF5E
:1000400011E0A0E0B1E0ECEDF7E002C005900D9208
:10005000AC32B107D9F721E0ACE2B1E001C01D92AA
:10006000AE33B207E1F7B3D0B7C3CACF25E030E073
:1000700009C0F901EE0FFF1FE45DFE4F11821082EF
:10008000215031093323B4F0F901EE0FFF1FE05086
:10009000FF4F40815181BC01641B750B52F3F90184
:1000A000EE0FFF1FE45DFE4F81E090E091838083BF
:1000B000CB01E6CF0895CF93DF938CE091E0BBD0E6
:1000C000D0E0C0E013C0FE01EE0FFF1FE45DFE4F65
:1000D00081818F9380818F9389E291E09F938F93A9
:1000E00097D021960F900F900F900F90C630D105AA
:1000F00054F3DF91CF910895009781F0019709F4AF
:100100005CC0089528B141E050E0082E02C0440FC1
:10011000551F0A94E2F7242B28B9019686309105E1
:10012000CCF4FC01EE0FFF1FE45DFE4F2081318116
:100130002130310539F3232B81F748B121E030E03C
:10014000082E02C0220F331F0A94E2F720952423C1
:1001500028B9E3CF87EA91E60197F1F700C00000E4
:1001600008952BB1BC016D5F7F4F41E050E002C0AC
:10017000440F551F6A95E2F7242B2BB90196853061
:100180009105F4F4FC01EE0FFF1FE45DFE4F2081AA
:1001900031812130310529F3232B81F74BB1BC018B
:1001A0006D5F7F4F21E030E002C0220F331F6A9560
:1001B000E2F7209524232BB9E1CF90E080E0DFCF58
:1001C00087EA91E60197F1F700C000009ACF8FE32C
:1001D00087B988EF8AB910E000E00BC0CE0146DF96
:1001E00090E080E089DF2196CD33D105BCF30F5F2D
:1001F0001F4F0831110544F4C80138DF81E090E059
:100200007BDFC1E0D0E0F0CF8BB188608BB9FCCF51
:10021000B0E0A0E0EDE0F1E0B8C2AE014B5F5F4FAF
:10022000FA0161917191AF0180913A0190913B0186
:100230002DD0E2E0C6C20F931F93CF93DF93E091DE
:100240003A01F0913B012381EC0110E000E021FD37
:1002500008C00FEF1FEF14C00995892B11F00FEFA5
:100260001FEF899160913A0170913B01DB01189673
:10027000ED91FC918111F0CF8AE00995892B49F726
:10028000C801DF91CF911F910F910895ABE0B0E0CD
:10029000EBE4F1E06AC27C013B018A01FC011782B8
:1002A0001682838181FFBAC1CE0101965C01F701FC
:1002B0009381F30193FD859193FF81913F01882301
:1002C00009F449C1853239F493FD859193FF8191F9
:1002D0003F01853221F4B70190E0B9D1E8CF912CEC
:1002E000212C312CFFE1F31538F08B3211F190F411
:1002F000803209F1833229F137FC3CC020ED280F10
:100300002A3050F536FE20C08AE0989E200D112438
:10031000922E06C08D3291F0803371F7689430F8D8
:10032000F30193FD859193FF81913F018111DACF14
:1003300021C0689431F8689432F8F2CF689433F8A9
:10034000EFCF689434F8ECCFEAE02E9E200D112414
:10035000222E689435F8E4CF8E3229F436FCFBC0A7
:10036000689436F8DDCF8C3619F4689437F8D8CF16
:100370008836B1F2982F9F7D95549330D8F083360C
:1003800091F18337B1F1833509F05EC02801F2E0C5
:100390004F0E511CF801C080D180692D70E036FCF1
:1003A00002C06FEF7FEFC6013CD14C01689437F873
:1003B00082010AC00C5F1F4FFFE3F98388248394F6
:1003C000912C6501E89437F833FE2AC0522C811431
:1003D000910459F5552009F46ACFB70180E290E005
:1003E00036D15A94F7CFF801808189830E5F1F4F71
:1003F000E5CF2801F2E04F0E511CF801C080D180FA
:10040000692D70E036FC02C06FEF7FEFC60114D19A
:100410004C018201D7CFB70180E290E018D12A9435
:100420002814190409F0B8F7D1CFF60137FC8591EB
:1004300037FE81916F01B70190E009D151105A94B4
:10044000F1E08F1A9108C3CF843619F0893609F08C
:1004500073C0F80137FE67C060817181828193812A
:100460000C5F1F4FF32DFF763F2E97FF09C090952D
:100470008095709561957F4F8F4F9F4F689437F8A7
:100480002AE030E0A50113D1C82ECA188C2C432CC9
:1004900036FE0CC0E89440F8C91440F434FE05C0A0
:1004A00032FC03C0F32DFE7E4F2E892C44FE90C0FB
:1004B000FE01EC0DF11D8081803309F082C0242DF6
:1004C000297E422E842D8870582E43FC8FC040FE1A
:1004D00089C09C2C821418F42C0C922C981844FE81
:1004E0008BC0B70180E390E0B2D042FE08C088E73D
:1004F00090E041FE02C088E590E0B701A8D0C914A1
:1005000008F486C0CA94D12C9FEFC91AD90ACA0C24
:10051000DB1CF60182916F01B70190E098D0AC141A
:10052000BD04B9F757CF60817181072E000C880B8D
:10053000990B0E5F1F4F96CFD32CE894D4F82AE086
:1005400030E0853731F1232D297FD22E8F36F9F017
:1005500040F48835A1F0F701868197812B96E2E17E
:1005600020C1803749F08837B1F7D4FE02C06894C3
:10057000D2F820E130E00DC06894D4F8F6CF34FE14
:1005800003C0822F8660D82E20E132E002C028E02E
:1005900030E0F801D7FE0EC06081718182819381C5
:1005A0000C5F1F4FA50183D0C82ECA183D2CE894BC
:1005B00037F86CCF6081718190E080E00E5F1F4F53
:1005C000F1CF42FC02C083947DCF839483947ACF91
:1005D000842D867809F476CFF6CFB70180E290E0DB
:1005E00036D083948214C8F3512C79CF522C5818EA
:1005F000821408F474CFF8CF842D867809F47FCF65
:100600008BE241FE80E247FC8DE2B70190E076CFBD
:10061000B70180E390E01BD09A9471CF8FEF9FEFEA
:100620009DCFFC010590615070400110D8F7809576
:1006300090958E0F9F1F0895FC01615070400190AE
:100640000110D8F7809590958E0F9F1F08950F93F6
:100650001F93CF93DF93182F092FEB018B8181FD1F
:1006600009C01FEF0FEF812F902FDF91CF911F91C6
:100670000F91089582FF14C02E813F818C819D814E
:10068000281739073CF4E881F981CF010196998355
:10069000888310838E819F8101969F838E83E3CF11
:1006A000E885F985812F0995892BA1F3DACFFA0125
:1006B000AA27283051F1203181F1E8946F936E7FA1
:1006C0006E5F7F4F8F4F9F4FAF4FB1E03ED0B4E092
:1006D0003CD0670F781F891F9A1FA11D680F791FD3
:1006E0008A1F911DA11D6A0F711D811D911DA11DE4
:1006F00020D009F468943F912AE0269F11243019F4
:10070000305D3193DEF6CF010895462F4770405D8E
:100710004193B3E00FD0C9F7F6CF462F4F70405D3D
:100720004A3318F0495D31FD4052419302D0A9F798
:10073000EACFB4E0A6959795879577956795BA9592
:10074000C9F700976105710508959B01AC010A2E58
:1007500006945795479537952795BA95C9F7620F2F
:10076000731F841F951FA01D08952F923F924F92D3
:100770005F926F927F928F929F92AF92BF92CF9231
:10078000DF92EF92FF920F931F93CF93DF93CDB73A
:10079000DEB7CA1BDB0B0FB6F894DEBF0FBECDBFB2
:1007A00009942A88398848885F846E847D848C8483
:1007B0009B84AA84B984C884DF80EE80FD800C818C
:1007C0001B81AA81B981CE0FD11D0FB6F894DEBF6F
:0C07D0000FBECDBFED010895F894FFCFDF
:1007DC000100020004000800100020005B2A5D20CC
:1007EC007072696E74696E6720746865206D696ECD
:0C07FC0041727261792E2E2E00256400DF
:00000001FF
